:020000040800F2
:1000000000A000204111000885110008851100089A
:100010008511000885110008851100080000000006
:100020000000000000000000000000008511000832
:1000300085110008000000008511000885110008E6
:100040008511000885110008851100088511000838
:100050008511000885110008851100088511000828
:100060008511000885110008851100088511000818
:100070008511000885110008851100088511000808
:1000800085110008851100088511000885110008F8
:1000900085110008851100088511000885110008E8
:1000A00085110008851100088511000885110008D8
:1000B00085110008851100088511000885110008C8
:1000C00085110008851100088511000885110008B8
:1000D00085110008851100088511000885110008A8
:1000E0008511000885110008851100088511000898
:1000F0008511000885110008851100088511000888
:100100000000000000000000000000008511000851
:100110008511000885110008851100088511000867
:100120008511000885110008851100088511000857
:100130008511000885110008000000000000000083
:1001400085110008851100088511000800000000D5
:10015000000000000000000000000000000000009F
:100160000000000000000000851100088511000853
:1001700085110008000000000000000000000000E1
:10018000000000008511000880B48BB000AF7860DB
:1001900000233B620023FB610023BB6100237B61E2
:1001A00000233B6100237B620023FB600023BB60D4
:1001B000924B5B6803F00C033B623B6A042B07D055
:1001C000082B09D0002B30D17B688D4A1A6030E0B3
:1001D0007B688B4A1A602CE0884B5B6803F47013D1
:1001E000FB61864B5B6803F48033BB61FB699B0C4E
:1001F0000233FB61BB69002B05D1FB69814A02FB1D
:1002000003F37B620DE07D4BDB6A03F00F030133E8
:100210007B617B4A7B69B2FBF3F3FA6902FB03F370
:100220007B627B687A6A1A6003E07B68744A1A60B2
:1002300000BF724B5B6803F0F0033B623B6A1B0933
:100240003B62714A3B6A13441B78DBB2BB607B683C
:100250001A68BB68DA407B685A60684B5B6803F4D5
:10026000E0633B623B6A1B0A3B62674A3B6A13449A
:100270001B78DBB23B617B685A683B69DA407B687C
:100280009A605E4B5B6803F460533B623B6ADB0A37
:100290003B625D4A3B6A13441B78DBB2FB607B68C0
:1002A0005A68FB68DA407B68DA60544BDB6A03F417
:1002B000F8733B623B6A1B093B62544A3B6A32F863
:1002C00013309BB23B613B6903F01003002B06D057
:1002D0007A6A3B69B2FBF3F27B681A6103E07B68E0
:1002E0001A687B681A61454BDB6A03F478533B62FA
:1002F0003B6A5B0A3B62454A3B6A32F813309BB269
:100300003B613B6903F01003002B06D07A6A3B691E
:10031000B2FBF3F27B685A6103E07B681A687B6882
:100320005A61364B1B6B03F01003002B03D17B6823
:10033000334A9A6103E07B681A687B689A612F4BA5
:100340001B6B03F02003002B03D17B682C4ADA617E
:1003500003E07B681A687B68DA61284B1B6B03F447
:100360008073002B0DD07B681A687B6A9A4208D193
:10037000FA68BB689A4204D17B6A5A007B681A62A9
:1003800003E07B68DA687B681A621C4B1B6B03F422
:100390000073002B0DD07B681A687B6A9A4208D1E3
:1003A000FA68BB689A4204D17B6A5A007B685A6239
:1003B00003E07B68DA687B685A62104B1B6B03F0C2
:1003C0000303002B04D17B68DA687B689A6228E01B
:1003D0000A4B1B6B03F00303012B04D17B681A68E3
:1003E0007B689A621DE0054B1B6B03F00303022B35
:1003F0000ED17B684FF400429A6212E00010024076
:1004000000127A0000093D000000002010000020CA
:10041000604B1B6B03F00303032B02D17B685E4A26
:100420009A625C4B1B6B03F44033002B04D17B6856
:100430009A687B68DA6221E0564B1B6B03F4403309
:10044000B3F5803F04D17B681A687B68DA6215E0F7
:10045000504B1B6B03F44033B3F5003F04D17B6872
:100460004FF40042DA6209E04A4B1B6B03F440335D
:10047000B3F5403F02D17B68474ADA62454B1B6BBC
:1004800003F44023002B04D17B689A687B681A63CD
:1004900021E0404B1B6B03F44023B3F5802F04D1C4
:1004A0007B681A687B681A6315E03A4B1B6B03F490
:1004B0004023B3F5002F04D17B684FF400421A6348
:1004C00009E0344B1B6B03F44023B3F5402F02D1FA
:1004D0007B68314A1A632F4B1B6B03F44013002BCC
:1004E00004D17B689A687B685A6321E0294B1B6BB7
:1004F00003F44013B3F5801F04D17B681A687B684E
:100500005A6315E0234B1B6B03F44013B3F5001F34
:1005100004D17B684FF400425A6309E01D4B1B6B0A
:1005200003F44013B3F5401F02D17B681A4A5A63A3
:10053000184B1B6B03F44003002B04D17B689A68B3
:100540007B689A6321E0134B1B6B03F44003B3F504
:10055000800F04D17B681A687B689A6315E00D4BA5
:100560001B6B03F44003B3F5000F04D17B684FF419
:1005700000429A6309E0074B1B6B03F44003B3F599
:10058000400F02D17B68044A9A632C37BD465DF860
:10059000047B70470010024000127A0080B483B0E0
:1005A00000AF78600B46FB70FB78002B06D0094942
:1005B000084B5A697B6813434B6106E00549054BBC
:1005C0005A697B68DB4313404B610C37BD465DF8CD
:1005D000047B70470010024080B483B000AF7860A5
:1005E0000B46FB70FB78002B06D00949084B9A6933
:1005F0007B6813438B6106E00549054B9A697B686C
:10060000DB4313408B610C37BD465DF8047B7047BC
:100610000010024080B483B000AF78600B46FB70DE
:10062000FB78002B06D00949084BDA697B68134335
:10063000CB6106E00549054BDA697B68DB43134073
:10064000CB610C37BD465DF8047B7047001002405B
:1006500080B487B000AF7860396000237B610023ED
:100660003B610023FB6000237B617CE07B6901220E
:1006700002FA03F33B613B681A683B691340FB6075
:10068000FA683B699A426BD13B681B79012B03D016
:100690003B681B79022B34D17B689A687B695B00CD
:1006A000194603238B40DB431A407B689A607B68C2
:1006B0009A683B685B7919467B695B0001FA03F332
:1006C0001A437B689A607B689B889AB27B699BB26D
:1006D000194601238B409BB2DB439BB213409AB275
:1006E0007B689A807B689B889AB23B689B791946A5
:1006F0007B699BB201FA03F39BB213439AB27B6806
:100700009A807B681A687B695B00194603238B40DB
:10071000DB431A407B681A607B681A683B681B7968
:1007200019467B695B0001FA03F31A437B681A6080
:100730007B68DA687B699BB25B00032101FA03F3F3
:10074000DB431A407B68DA607B68DA683B68DB79F8
:1007500019467B695B0001FA03F31A437B68DA6090
:100760007B6901337B617B690F2B7FF67FAF1C3781
:10077000BD465DF8047B704780B485B000AF7860FB
:100780000B467B8013467B700023FB600023BB601D
:100790007B787A8802F0070292009340FB607B88A6
:1007A000DB089BB218467B88DB089BB21A467B6845
:1007B000083253F822207B8803F007039B00194678
:1007C0000F238B40DB4302EA03017B6800F1080240
:1007D00043F822107B88DB089BB21A467B680832FC
:1007E00053F82220FB681343BB607B88DB089BB275
:1007F0001A467B680832B96843F822101437BD46A0
:100800005DF8047B704700BF80B582B000AF4FF445
:1008100000300121FFF7C2FE4FF480200121FFF7D5
:10082000BDFE4FF400200121FFF7B8FE4FF4801009
:100830000121FFF7B3FE274805210722FFF79CFFA0
:10084000244804210722FFF797FF23480D210222A5
:10085000FFF792FF20480F210222FFF78DFF1D486E
:1008600006210222FFF788FF1B480E210222FFF714
:1008700083FF30233B6002233B7103237B71002302
:10088000BB710123FB713B4612481946FFF7E0FE9E
:100890004FF460433B6002233B7103237B710023D1
:1008A000BB710123FB713B460B481946FFF7D0FE95
:1008B00040233B6002233B7103237B710023BB7108
:1008C0000123FB713B4603481946FFF7C1FE083779
:1008D000BD4680BD00080048000C004880B586B0C9
:1008E00000AF4FF480400121FFF776FE4FF416531E
:1008F0003B6000237B600023BB600023FB60002380
:100900007B610C233B613B460548194600F03CFCEB
:100910000348012100F0F2FC1837BD4680BD00BF3E
:100920000038014080B588B000AF02200121FFF7F8
:1009300071FE04200121FFF76DFE4723BB820023D7
:10094000FB8244F61F63BB610023BB830023BB779C
:1009500007F114032048194600F0FCF807F11403CE
:100960001E48194600F0F6F860233B604FF47A7396
:10097000BB600123BB800023BB813B461648194660
:1009800000F010FA1448002100F086FB3B461248A4
:10099000194600F005FB1048002100F0B5FB3B466E
:1009A0000D48194600F07EFA0B48002100F090FB3C
:1009B0003B460A48194600F063F90848002100F058
:1009C0004FFB0648012100F03BF90348012100F0EC
:1009D00037F92037BD4680BD0008004000040040C4
:1009E00080B500AFFFF710FFFFF79CFFFFF776FF22
:1009F000FEE700BF80B500AF1A4A1A4B1B6843F0F0
:100A0000010313601749174B5A68174B13404B608B
:100A1000144A144B1B6823F0847323F4803313604F
:100A2000104A104B1B6823F4802313600D4A0D4BB2
:100A30005B6823F4FE0353600A4A0A4BDB6A23F027
:100A40000F03D3620749074B1A6B084B13400B6324
:100A5000044B00229A6000F00DF8054B4FF0006245
:100A60009A6080BD001002400CC07FF8CCFC00FFF3
:100A700000ED00E080B483B000AF00237B60002372
:100A80003B60324A314B1B6843F4803313602F4B79
:100A90001B6803F400333B607B6801337B603B6879
:100AA000002B03D17B68B3F5A06FF0D1274B1B68F7
:100AB00003F40033002B02D001233B6001E000234C
:100AC0003B603B68012B3CD1214B12221A601F4A2C
:100AD0001E4B5B6853601D4A1C4B5B6853601B4A8E
:100AE0001A4B5B6843F480635360184A174B5B688A
:100AF00023F47C135360154A144B5B6843F4E813EA
:100B00005360124A114B1B6843F08073136000BF9F
:100B10000E4B1B6803F00073002BF9D00B4A0B4BF4
:100B20005B6823F003035360084A084B5B6843F09B
:100B30000203536000BF054B5B6803F00C03082BF6
:100B4000F9D10C37BD465DF8047B704700100240B8
:100B50000020024080B485B000AF78603960002387
:100B6000FB817B681B88FB817B682C4A93420FD0FA
:100B70007B682B4A93420BD07B68B3F1804F07D040
:100B80007B68284A934203D07B68274A934208D166
:100B9000FB8923F07003FB813B685A88FB89134370
:100BA000FB817B68214A93420CD07B68204A9342A8
:100BB00008D0FB8923F44073FB813B681A89FB89C9
:100BC0001343FB817B68FA891A803B685A687B680B
:100BD000DA623B681A887B681A857B680F4A934201
:100BE0000FD07B680E4A93420BD07B68114A934228
:100BF00007D07B68104A934203D07B680F4A934228
:100C000004D13B689B7A9AB27B681A867B68012282
:100C10005A611437BD465DF8047B7047002C0140D3
:100C20000034014000040040000800400010004073
:100C300000140040004001400044014000480140D1
:100C400080B483B000AF78600B46FB70FB78002B5C
:100C500008D07B681B889BB243F001039AB27B6883
:100C60001A8007E07B681B889BB223F001039AB2CD
:100C70007B681A800C37BD465DF8047B704700BF67
:100C800080B487B000AF786039600023FB60002338
:100C90007B6100233B617B681B6A23F001027B6858
:100CA0001A627B681B6A7B617B685B683B617B685F
:100CB0009B69FB60FB6823F4803323F07003FB60C7
:100CC000FB6823F00303FB603B681B68FA6813436F
:100CD000FB607B6923F002037B613B689B891A46BA
:100CE0007B6913437B613B689B881A467B6913438E
:100CF0007B617B68264A93420FD07B68254A9342EA
:100D00000BD07B68244A934207D07B68234A9342E6
:100D100003D07B68224A934227D17B6923F00803E2
:100D20007B613B68DB891A467B6913437B617B6986
:100D300023F004037B613B68DB881A467B6913431D
:100D40007B613B6923F480733B613B6923F400734F
:100D50003B613B681B8A1A463B6913433B613B6816
:100D60005B8A1A463B6913433B617B683A695A6068
:100D70007B68FA689A613B689A687B685A637B680B
:100D80007A691A621C37BD465DF8047B704700BF64
:100D9000002C01400034014000400140004401406B
:100DA0000048014080B487B000AF7860396000230C
:100DB000FB6000237B6100233B617B681B6A23F09F
:100DC00010027B681A627B681B6A7B617B685B68C8
:100DD0003B617B689B69FB60FB6823F0807323F4B5
:100DE000E043FB60FB6823F44073FB603B681B68D7
:100DF0001B02FA681343FB607B6923F020037B61CD
:100E00003B689B891B017A6913437B613B689B8824
:100E10001B017A6913437B617B68204A934203D0AC
:100E20007B681F4A934227D17B6923F080037B6153
:100E30003B68DB891B017A6913437B617B6923F083
:100E400040037B613B68DB881B017A6913437B614C
:100E50003B6923F480633B613B6923F400633B619E
:100E60003B681B8A9B003A6913433B613B685B8A82
:100E70009B003A6913433B617B683A695A607B681F
:100E8000FA689A613B689A687B689A637B687A69BA
:100E90001A621C37BD465DF8047B7047002C014088
:100EA0000034014080B487B000AF7860396000231F
:100EB000FB6000237B6100233B617B681B6A23F49A
:100EC00080727B681A627B681B6A7B617B685B68E7
:100ED0003B617B68DB69FB60FB6823F07003FB60B0
:100EE000FB6823F00303FB603B681B68FA6813434D
:100EF000FB607B6923F400737B613B689B891B0269
:100F00007A6913437B613B689B881B027A691343B0
:100F10007B617B68204A934203D07B681F4A9342DF
:100F200027D17B6923F400637B613B68DB891B026B
:100F30007A6913437B617B6923F480637B613B683F
:100F4000DB881B027A6913437B613B6923F480537E
:100F50003B613B6923F400533B613B681B8A1B01E7
:100F60003A6913433B613B685B8A1B013A6913434F
:100F70003B617B683A695A607B68FA68DA613B6872
:100F80009A687B68DA637B687A691A621C37BD46A7
:100F90005DF8047B704700BF002C01400034014025
:100FA00080B487B000AF7860396000233B610023D4
:100FB000FB6000237B617B681B6A23F480527B68A3
:100FC0001A627B681B6AFB607B685B687B617B687D
:100FD000DB693B613B6923F4E0433B613B6923F4FC
:100FE00040733B613B681B681B023A6913433B61DA
:100FF000FB6823F40053FB603B689B891B03FA6882
:101000001343FB603B689B881B03FA681343FB6038
:101010007B68114A934203D07B68104A934209D1FE
:101020007B6923F480437B613B681B8A9B017A695F
:1010300013437B617B687A695A607B683A69DA613D
:101040003B689A687B681A647B68FA681A621C3786
:10105000BD465DF8047B7047002C01400034014020
:1010600080B485B000AF78600B467B800023FB60C6
:101070007B689B69FB60FB6823F00803FB607B884F
:10108000FA681343FB607B68FA689A611437BD46BF
:101090005DF8047B704700BF80B485B000AF786016
:1010A0000B467B800023FB607B689B69FB60FB68D1
:1010B00023F40063FB607B881B02FA681343FB6028
:1010C0007B68FA689A611437BD465DF8047B704707
:1010D00080B485B000AF78600B467B800023FB6056
:1010E0007B68DB69FB60FB6823F00803FB607B889F
:1010F000FA681343FB607B68FA68DA611437BD460F
:101100005DF8047B704700BF80B485B000AF7860A5
:101110000B467B800023FB607B68DB69FB60FB6820
:1011200023F40063FB607B881B02FA681343FB60B7
:101130007B68FA68DA611437BD465DF8047B704756
:10114000002103E00A4B5B584350043109480A4B25
:1011500042189A42F6D3094A02E0002342F8043BBF
:10116000074B9A42F9D3FFF745FCFFF739FC70476C
:1011700034130008000000202C0000202C00002068
:101180002C000020FEE7000080B594B000AF78602E
:1011900039600023FB640023BB6400237B647B680D
:1011A0001B6823F001027B681A607B685B687B64C4
:1011B0007B6C23F440537B643B689B687A6C1343DD
:1011C0007B647B687A6C5A607B681B687B647B6C91
:1011D00023F4B05323F00C037B643B685A683B68EC
:1011E000DB681A433B681B6913437A6C13437B64C7
:1011F0007B687A6C1A607B689B687B647B6C23F4E9
:1012000040737B643B685B697A6C13437B647B68E7
:101210007A6C9A6007F108031846FEF7B5FF7B6801
:10122000324A934202D13B6BBB6416E07B68304A82
:10123000934202D17B6BBB640FE07B682D4A9342E3
:1012400002D1BB6BBB6408E07B682B4A934202D19E
:10125000FB6BBB6401E03B6CBB647B681B6803F405
:101260000043002B11D0BB6C5A003B681B68B2FBDB
:10127000F3F3FB64BB6C5B003A681268B3FBF2F1FA
:1012800002FB01F29B1A7B640EE03B681B68BA6CA0
:10129000B2FBF3F3FB643B681A68BB6CB3FBF2F17F
:1012A00002FB01F29B1A7B643B681B685A087B6C4B
:1012B0009A4202D8FB6C0133FB647B681B6803F421
:1012C0000043002B0BD0FB6C03F00F035B087B6427
:1012D000FA6C4FF6F07313407A6C1343FB64FB6CAB
:1012E0009AB27B689A815037BD4680BD0038014074
:1012F0000044004000480040004C004080B483B0EF
:1013000000AF78600B46FB70FB78002B06D07B6843
:101310001B6843F001027B681A6005E07B681B686C
:1013200023F001027B681A600C37BD465DF8047B30
:04133000704700BF43
:101334000000000001020304010203040607080977
:101344000000010002000400060008000A000C006E
:0C1354001000200040008000000100009C
:0400000508000000EF
:00000001FF
